{
    "_format": "hh-sol-artifact-1",
    "contractName": "GamePlayerStatus",
    "sourceName": "contracts/GamePlayerStatus.sol",
    "abi": [
        {
            "inputs": [
                {
                    "internalType": "string[]",
                    "name": "_tasks",
                    "type": "string[]"
                }
            ],
            "stateMutability": "nonpayable",
            "type": "constructor"
        },
        {
            "anonymous": false,
            "inputs": [
                {
                    "indexed": false,
                    "internalType": "string",
                    "name": "task",
                    "type": "string"
                }
            ],
            "name": "TaskCompleted",
            "type": "event"
        },
        {
            "anonymous": false,
            "inputs": [],
            "name": "TasksReset",
            "type": "event"
        },
        {
            "inputs": [
                {
                    "internalType": "string",
                    "name": "_task",
                    "type": "string"
                }
            ],
            "name": "checkTaskExists",
            "outputs": [
                {
                    "internalType": "bool",
                    "name": "",
                    "type": "bool"
                }
            ],
            "stateMutability": "view",
            "type": "function"
        },
        {
            "inputs": [
                {
                    "internalType": "string",
                    "name": "_task",
                    "type": "string"
                }
            ],
            "name": "completeTask",
            "outputs": [
                {
                    "internalType": "bool",
                    "name": "",
                    "type": "bool"
                }
            ],
            "stateMutability": "nonpayable",
            "type": "function"
        },
        {
            "inputs": [],
            "name": "gameStatus",
            "outputs": [
                {
                    "internalType": "bool",
                    "name": "",
                    "type": "bool"
                }
            ],
            "stateMutability": "view",
            "type": "function"
        },
        {
            "inputs": [],
            "name": "getTaskStatus",
            "outputs": [
                {
                    "internalType": "string[]",
                    "name": "",
                    "type": "string[]"
                },
                {
                    "internalType": "bool[]",
                    "name": "",
                    "type": "bool[]"
                }
            ],
            "stateMutability": "view",
            "type": "function"
        },
        {
            "inputs": [],
            "name": "getTasks",
            "outputs": [
                {
                    "internalType": "string[]",
                    "name": "",
                    "type": "string[]"
                }
            ],
            "stateMutability": "view",
            "type": "function"
        },
        {
            "inputs": [
                {
                    "internalType": "string",
                    "name": "_task",
                    "type": "string"
                }
            ],
            "name": "isTaskCompleted",
            "outputs": [
                {
                    "internalType": "bool",
                    "name": "",
                    "type": "bool"
                }
            ],
            "stateMutability": "view",
            "type": "function"
        },
        {
            "inputs": [],
            "name": "reset",
            "outputs": [],
            "stateMutability": "nonpayable",
            "type": "function"
        }
    ],
    "bytecode": "0x60806040523480156200001157600080fd5b506040516200159f3803806200159f833981810160405281019062000037919062000392565b60005b8151811015620000fb576000808383815181106200005d576200005c620003e3565b5b60200260200101516040516200007491906200045f565b908152602001604051809103902060006101000a81548160ff0219169083151502179055506001828281518110620000b157620000b0620003e3565b5b6020026020010151908060018154018082558091505060019003906000526020600020016000909190919091509081620000ec9190620006b8565b5080806001019150506200003a565b50506200079f565b6000604051905090565b600080fd5b600080fd5b600080fd5b6000601f19601f8301169050919050565b7f4e487b7100000000000000000000000000000000000000000000000000000000600052604160045260246000fd5b62000167826200011c565b810181811067ffffffffffffffff821117156200018957620001886200012d565b5b80604052505050565b60006200019e62000103565b9050620001ac82826200015c565b919050565b600067ffffffffffffffff821115620001cf57620001ce6200012d565b5b602082029050602081019050919050565b600080fd5b600080fd5b600067ffffffffffffffff8211156200020857620002076200012d565b5b62000213826200011c565b9050602081019050919050565b60005b838110156200024057808201518184015260208101905062000223565b60008484015250505050565b6000620002636200025d84620001ea565b62000192565b905082815260208101848484011115620002825762000281620001e5565b5b6200028f84828562000220565b509392505050565b600082601f830112620002af57620002ae62000117565b5b8151620002c18482602086016200024c565b91505092915050565b6000620002e1620002db84620001b1565b62000192565b90508083825260208201905060208402830185811115620003075762000306620001e0565b5b835b818110156200035557805167ffffffffffffffff81111562000330576200032f62000117565b5b8086016200033f898262000297565b8552602085019450505060208101905062000309565b5050509392505050565b600082601f83011262000377576200037662000117565b5b815162000389848260208601620002ca565b91505092915050565b600060208284031215620003ab57620003aa6200010d565b5b600082015167ffffffffffffffff811115620003cc57620003cb62000112565b5b620003da848285016200035f565b91505092915050565b7f4e487b7100000000000000000000000000000000000000000000000000000000600052603260045260246000fd5b600081519050919050565b600081905092915050565b6000620004358262000412565b6200044181856200041d565b93506200045381856020860162000220565b80840191505092915050565b60006200046d828462000428565b915081905092915050565b7f4e487b7100000000000000000000000000000000000000000000000000000000600052602260045260246000fd5b60006002820490506001821680620004c057607f821691505b602082108103620004d657620004d562000478565b5b50919050565b60008190508160005260206000209050919050565b60006020601f8301049050919050565b600082821b905092915050565b600060088302620005407fffffffffffffffffffffffffffffffffffffffffffffffffffffffffffffffff8262000501565b6200054c868362000501565b95508019841693508086168417925050509392505050565b6000819050919050565b6000819050919050565b600062000599620005936200058d8462000564565b6200056e565b62000564565b9050919050565b6000819050919050565b620005b58362000578565b620005cd620005c482620005a0565b8484546200050e565b825550505050565b600090565b620005e4620005d5565b620005f1818484620005aa565b505050565b5b8181101562000619576200060d600082620005da565b600181019050620005f7565b5050565b601f82111562000668576200063281620004dc565b6200063d84620004f1565b810160208510156200064d578190505b620006656200065c85620004f1565b830182620005f6565b50505b505050565b600082821c905092915050565b60006200068d600019846008026200066d565b1980831691505092915050565b6000620006a883836200067a565b9150826002028217905092915050565b620006c38262000412565b67ffffffffffffffff811115620006df57620006de6200012d565b5b620006eb8254620004a7565b620006f88282856200061d565b600060209050601f8311600181146200073057600084156200071b578287015190505b6200072785826200069a565b86555062000797565b601f1984166200074086620004dc565b60005b828110156200076a5784890151825560018201915060208501945060208101905062000743565b868310156200078a578489015162000786601f8916826200067a565b8355505b6001600288020188555050505b505050505050565b610df080620007af6000396000f3fe608060405234801561001057600080fd5b506004361061007d5760003560e01c80635ee66e881161005b5780635ee66e8814610100578063722fed7e1461013057806396740de31461014e578063d826f88f1461016d5761007d565b806304a87e38146100825780633251c049146100a0578063394c244b146100d0575b600080fd5b61008a610177565b6040516100979190610872565b60405180910390f35b6100ba60048036038101906100b591906109dd565b610250565b6040516100c79190610a41565b60405180910390f35b6100ea60048036038101906100e591906109dd565b6102f7565b6040516100f79190610a41565b60405180910390f35b61011a600480360381019061011591906109dd565b6103c0565b6040516101279190610a41565b60405180910390f35b61013861043f565b6040516101459190610a41565b60405180910390f35b6101566104c1565b604051610164929190610b1a565b60405180910390f35b610175610681565b005b60606001805480602002602001604051908101604052809291908181526020016000905b828210156102475783829060005260206000200180546101ba90610b80565b80601f01602080910402602001604051908101604052809291908181526020018280546101e690610b80565b80156102335780601f1061020857610100808354040283529160200191610233565b820191906000526020600020905b81548152906001019060200180831161021657829003601f168201915b50505050508152602001906001019061019b565b50505050905090565b600080600090505b6001805490508110156102ec57826040516020016102769190610bed565b60405160208183030381529060405280519060200120600182815481106102a05761029f610c04565b5b906000526020600020016040516020016102ba9190610ccb565b60405160208183030381529060405280519060200120036102df5760019150506102f2565b8080600101915050610258565b50600090505b919050565b60008161030381610250565b610342576040517f08c379a000000000000000000000000000000000000000000000000000000000815260040161033990610d3f565b60405180910390fd5b60016000846040516103549190610bed565b908152602001604051809103902060006101000a81548160ff0219169083151502179055507f2ea2764b7d80d0107c1d2c0210ead4a6fdee0f86235483a041d9faffbf875880836040516103a89190610d98565b60405180910390a16103b861043f565b915050919050565b6000816103cc81610250565b61040b576040517f08c379a000000000000000000000000000000000000000000000000000000000815260040161040290610d3f565b60405180910390fd5b60008360405161041b9190610bed565b908152602001604051809103902060009054906101000a900460ff16915050919050565b600080600090505b6001805490508110156104b85760006001828154811061046a57610469610c04565b5b906000526020600020016040516104819190610ccb565b908152602001604051809103902060009054906101000a900460ff166104ab5760009150506104be565b8080600101915050610447565b50600190505b90565b606080600060018054905067ffffffffffffffff8111156104e5576104e46108b2565b5b6040519080825280602002602001820160405280156105135781602001602082028036833780820191505090505b50905060005b6001805490508110156105a15760006001828154811061053c5761053b610c04565b5b906000526020600020016040516105539190610ccb565b908152602001604051809103902060009054906101000a900460ff1682828151811061058257610581610c04565b5b6020026020010190151590811515815250508080600101915050610519565b5060018181805480602002602001604051908101604052809291908181526020016000905b828210156106725783829060005260206000200180546105e590610b80565b80601f016020809104026020016040519081016040528092919081815260200182805461061190610b80565b801561065e5780601f106106335761010080835404028352916020019161065e565b820191906000526020600020905b81548152906001019060200180831161064157829003601f168201915b5050505050815260200190600101906105c6565b50505050915092509250509091565b60005b6001805490508110156106f157600080600183815481106106a8576106a7610c04565b5b906000526020600020016040516106bf9190610ccb565b908152602001604051809103902060006101000a81548160ff0219169083151502179055508080600101915050610684565b507f3ce3faa7c721ad3fdd768c232390587b2a5855c74a1a1c5601a62f5103d4584460405160405180910390a1565b600081519050919050565b600082825260208201905092915050565b6000819050602082019050919050565b600081519050919050565b600082825260208201905092915050565b60005b8381101561078657808201518184015260208101905061076b565b60008484015250505050565b6000601f19601f8301169050919050565b60006107ae8261074c565b6107b88185610757565b93506107c8818560208601610768565b6107d181610792565b840191505092915050565b60006107e883836107a3565b905092915050565b6000602082019050919050565b600061080882610720565b610812818561072b565b9350836020820285016108248561073c565b8060005b85811015610860578484038952815161084185826107dc565b945061084c836107f0565b925060208a01995050600181019050610828565b50829750879550505050505092915050565b6000602082019050818103600083015261088c81846107fd565b905092915050565b6000604051905090565b600080fd5b600080fd5b600080fd5b600080fd5b7f4e487b7100000000000000000000000000000000000000000000000000000000600052604160045260246000fd5b6108ea82610792565b810181811067ffffffffffffffff82111715610909576109086108b2565b5b80604052505050565b600061091c610894565b905061092882826108e1565b919050565b600067ffffffffffffffff821115610948576109476108b2565b5b61095182610792565b9050602081019050919050565b82818337600083830152505050565b600061098061097b8461092d565b610912565b90508281526020810184848401111561099c5761099b6108ad565b5b6109a784828561095e565b509392505050565b600082601f8301126109c4576109c36108a8565b5b81356109d484826020860161096d565b91505092915050565b6000602082840312156109f3576109f261089e565b5b600082013567ffffffffffffffff811115610a1157610a106108a3565b5b610a1d848285016109af565b91505092915050565b60008115159050919050565b610a3b81610a26565b82525050565b6000602082019050610a566000830184610a32565b92915050565b600081519050919050565b600082825260208201905092915050565b6000819050602082019050919050565b610a9181610a26565b82525050565b6000610aa38383610a88565b60208301905092915050565b6000602082019050919050565b6000610ac782610a5c565b610ad18185610a67565b9350610adc83610a78565b8060005b83811015610b0d578151610af48882610a97565b9750610aff83610aaf565b925050600181019050610ae0565b5085935050505092915050565b60006040820190508181036000830152610b3481856107fd565b90508181036020830152610b488184610abc565b90509392505050565b7f4e487b7100000000000000000000000000000000000000000000000000000000600052602260045260246000fd5b60006002820490506001821680610b9857607f821691505b602082108103610bab57610baa610b51565b5b50919050565b600081905092915050565b6000610bc78261074c565b610bd18185610bb1565b9350610be1818560208601610768565b80840191505092915050565b6000610bf98284610bbc565b915081905092915050565b7f4e487b7100000000000000000000000000000000000000000000000000000000600052603260045260246000fd5b60008190508160005260206000209050919050565b60008154610c5581610b80565b610c5f8186610bb1565b94506001821660008114610c7a5760018114610c8f57610cc2565b60ff1983168652811515820286019350610cc2565b610c9885610c33565b60005b83811015610cba57815481890152600182019150602081019050610c9b565b838801955050505b50505092915050565b6000610cd78284610c48565b915081905092915050565b600082825260208201905092915050565b7f5461736b20646f6573206e6f7420657869737400000000000000000000000000600082015250565b6000610d29601383610ce2565b9150610d3482610cf3565b602082019050919050565b60006020820190508181036000830152610d5881610d1c565b9050919050565b6000610d6a8261074c565b610d748185610ce2565b9350610d84818560208601610768565b610d8d81610792565b840191505092915050565b60006020820190508181036000830152610db28184610d5f565b90509291505056fea264697066735822122072eb9bf484850730a02919009f0910350e76b5abf10275d97c8d9ab261aec18f64736f6c63430008180033",
    "linkReferences": {},
    "deployedLinkReferences": {}
}